{
    "contractName": "HelloWorld",
    "abi": [
        {
            "inputs": [],
            "name": "print",
            "outputs": [
                {
                    "internalType": "string",
                    "name": "",
                    "type": "string"
                }
            ],
            "stateMutability": "pure",
            "type": "function"
        }
    ],
    "bytecode": "608060405234801561001057600080fd5b50610117806100206000396000f3fe6080604052348015600f57600080fd5b506004361060285760003560e01c806313bdfacd14602d575b600080fd5b60336047565b604051603e91906067565b60405180910390f35b60606040518060600160405280602881526020016100ba60289139905090565b600060208083528351808285015260005b818110156092578581018301518582016040015282016078565b8181111560a3576000604083870101525b50601f01601f191692909201604001939250505056fe48656c6c6f20576f726c64212046697273742053696d706c6520536d61727420436f6e7472616374a2646970667358221220ce5b350c3936f509fdf78b8287d560442f9c0402054cee040d9f20775f25384264736f6c634300080e0033",
    "sourcePath": "g:/BlockChainDev/firstProj/contracts/HelloWorld.sol",
    "compiler": {
        "name": "solc",
        "version": "0.8.14+commit.80d49f37"
    },
    "functionHashes": {
        "print()": "13bdfacd"
    },
    "gasEstimates": {
        "creation": {
            "codeDepositCost": "55800",
            "executionCost": "105",
            "totalCost": "55905"
        },
        "external": {
            "print()": "infinite"
        }
    }
}